{
  "_format": "hh-sol-artifact-1",
  "contractName": "LuckyToken",
  "sourceName": "contracts/LuckyToken.sol",
  "abi": [
    {
      "inputs": [
        {
          "internalType": "uint256",
          "name": "initialSupply",
          "type": "uint256"
        },
        {
          "internalType": "uint256",
          "name": "_faucetAmount",
          "type": "uint256"
        }
      ],
      "stateMutability": "nonpayable",
      "type": "constructor"
    },
    {
      "inputs": [],
      "name": "AccessControlBadConfirmation",
      "type": "error"
    },
    {
      "inputs": [
        {
          "internalType": "address",
          "name": "account",
          "type": "address"
        },
        {
          "internalType": "bytes32",
          "name": "neededRole",
          "type": "bytes32"
        }
      ],
      "name": "AccessControlUnauthorizedAccount",
      "type": "error"
    },
    {
      "inputs": [],
      "name": "ECDSAInvalidSignature",
      "type": "error"
    },
    {
      "inputs": [
        {
          "internalType": "uint256",
          "name": "length",
          "type": "uint256"
        }
      ],
      "name": "ECDSAInvalidSignatureLength",
      "type": "error"
    },
    {
      "inputs": [
        {
          "internalType": "bytes32",
          "name": "s",
          "type": "bytes32"
        }
      ],
      "name": "ECDSAInvalidSignatureS",
      "type": "error"
    },
    {
      "inputs": [
        {
          "internalType": "address",
          "name": "spender",
          "type": "address"
        },
        {
          "internalType": "uint256",
          "name": "allowance",
          "type": "uint256"
        },
        {
          "internalType": "uint256",
          "name": "needed",
          "type": "uint256"
        }
      ],
      "name": "ERC20InsufficientAllowance",
      "type": "error"
    },
    {
      "inputs": [
        {
          "internalType": "address",
          "name": "sender",
          "type": "address"
        },
        {
          "internalType": "uint256",
          "name": "balance",
          "type": "uint256"
        },
        {
          "internalType": "uint256",
          "name": "needed",
          "type": "uint256"
        }
      ],
      "name": "ERC20InsufficientBalance",
      "type": "error"
    },
    {
      "inputs": [
        {
          "internalType": "address",
          "name": "approver",
          "type": "address"
        }
      ],
      "name": "ERC20InvalidApprover",
      "type": "error"
    },
    {
      "inputs": [
        {
          "internalType": "address",
          "name": "receiver",
          "type": "address"
        }
      ],
      "name": "ERC20InvalidReceiver",
      "type": "error"
    },
    {
      "inputs": [
        {
          "internalType": "address",
          "name": "sender",
          "type": "address"
        }
      ],
      "name": "ERC20InvalidSender",
      "type": "error"
    },
    {
      "inputs": [
        {
          "internalType": "address",
          "name": "spender",
          "type": "address"
        }
      ],
      "name": "ERC20InvalidSpender",
      "type": "error"
    },
    {
      "inputs": [
        {
          "internalType": "uint256",
          "name": "deadline",
          "type": "uint256"
        }
      ],
      "name": "ERC2612ExpiredSignature",
      "type": "error"
    },
    {
      "inputs": [
        {
          "internalType": "address",
          "name": "signer",
          "type": "address"
        },
        {
          "internalType": "address",
          "name": "owner",
          "type": "address"
        }
      ],
      "name": "ERC2612InvalidSigner",
      "type": "error"
    },
    {
      "inputs": [
        {
          "internalType": "address",
          "name": "account",
          "type": "address"
        },
        {
          "internalType": "uint256",
          "name": "currentNonce",
          "type": "uint256"
        }
      ],
      "name": "InvalidAccountNonce",
      "type": "error"
    },
    {
      "inputs": [],
      "name": "InvalidShortString",
      "type": "error"
    },
    {
      "inputs": [
        {
          "internalType": "string",
          "name": "str",
          "type": "string"
        }
      ],
      "name": "StringTooLong",
      "type": "error"
    },
    {
      "anonymous": false,
      "inputs": [
        {
          "indexed": true,
          "internalType": "address",
          "name": "owner",
          "type": "address"
        },
        {
          "indexed": true,
          "internalType": "address",
          "name": "spender",
          "type": "address"
        },
        {
          "indexed": false,
          "internalType": "uint256",
          "name": "value",
          "type": "uint256"
        }
      ],
      "name": "Approval",
      "type": "event"
    },
    {
      "anonymous": false,
      "inputs": [],
      "name": "EIP712DomainChanged",
      "type": "event"
    },
    {
      "anonymous": false,
      "inputs": [
        {
          "indexed": true,
          "internalType": "bytes32",
          "name": "role",
          "type": "bytes32"
        },
        {
          "indexed": true,
          "internalType": "bytes32",
          "name": "previousAdminRole",
          "type": "bytes32"
        },
        {
          "indexed": true,
          "internalType": "bytes32",
          "name": "newAdminRole",
          "type": "bytes32"
        }
      ],
      "name": "RoleAdminChanged",
      "type": "event"
    },
    {
      "anonymous": false,
      "inputs": [
        {
          "indexed": true,
          "internalType": "bytes32",
          "name": "role",
          "type": "bytes32"
        },
        {
          "indexed": true,
          "internalType": "address",
          "name": "account",
          "type": "address"
        },
        {
          "indexed": true,
          "internalType": "address",
          "name": "sender",
          "type": "address"
        }
      ],
      "name": "RoleGranted",
      "type": "event"
    },
    {
      "anonymous": false,
      "inputs": [
        {
          "indexed": true,
          "internalType": "bytes32",
          "name": "role",
          "type": "bytes32"
        },
        {
          "indexed": true,
          "internalType": "address",
          "name": "account",
          "type": "address"
        },
        {
          "indexed": true,
          "internalType": "address",
          "name": "sender",
          "type": "address"
        }
      ],
      "name": "RoleRevoked",
      "type": "event"
    },
    {
      "anonymous": false,
      "inputs": [
        {
          "indexed": true,
          "internalType": "address",
          "name": "from",
          "type": "address"
        },
        {
          "indexed": true,
          "internalType": "address",
          "name": "to",
          "type": "address"
        },
        {
          "indexed": false,
          "internalType": "uint256",
          "name": "value",
          "type": "uint256"
        }
      ],
      "name": "Transfer",
      "type": "event"
    },
    {
      "inputs": [],
      "name": "DEFAULT_ADMIN_ROLE",
      "outputs": [
        {
          "internalType": "bytes32",
          "name": "",
          "type": "bytes32"
        }
      ],
      "stateMutability": "view",
      "type": "function"
    },
    {
      "inputs": [],
      "name": "DOMAIN_SEPARATOR",
      "outputs": [
        {
          "internalType": "bytes32",
          "name": "",
          "type": "bytes32"
        }
      ],
      "stateMutability": "view",
      "type": "function"
    },
    {
      "inputs": [
        {
          "internalType": "address",
          "name": "owner",
          "type": "address"
        },
        {
          "internalType": "address",
          "name": "spender",
          "type": "address"
        }
      ],
      "name": "allowance",
      "outputs": [
        {
          "internalType": "uint256",
          "name": "",
          "type": "uint256"
        }
      ],
      "stateMutability": "view",
      "type": "function"
    },
    {
      "inputs": [
        {
          "internalType": "address",
          "name": "spender",
          "type": "address"
        },
        {
          "internalType": "uint256",
          "name": "value",
          "type": "uint256"
        }
      ],
      "name": "approve",
      "outputs": [
        {
          "internalType": "bool",
          "name": "",
          "type": "bool"
        }
      ],
      "stateMutability": "nonpayable",
      "type": "function"
    },
    {
      "inputs": [
        {
          "internalType": "address",
          "name": "account",
          "type": "address"
        }
      ],
      "name": "balanceOf",
      "outputs": [
        {
          "internalType": "uint256",
          "name": "",
          "type": "uint256"
        }
      ],
      "stateMutability": "view",
      "type": "function"
    },
    {
      "inputs": [],
      "name": "decimals",
      "outputs": [
        {
          "internalType": "uint8",
          "name": "",
          "type": "uint8"
        }
      ],
      "stateMutability": "view",
      "type": "function"
    },
    {
      "inputs": [],
      "name": "eip712Domain",
      "outputs": [
        {
          "internalType": "bytes1",
          "name": "fields",
          "type": "bytes1"
        },
        {
          "internalType": "string",
          "name": "name",
          "type": "string"
        },
        {
          "internalType": "string",
          "name": "version",
          "type": "string"
        },
        {
          "internalType": "uint256",
          "name": "chainId",
          "type": "uint256"
        },
        {
          "internalType": "address",
          "name": "verifyingContract",
          "type": "address"
        },
        {
          "internalType": "bytes32",
          "name": "salt",
          "type": "bytes32"
        },
        {
          "internalType": "uint256[]",
          "name": "extensions",
          "type": "uint256[]"
        }
      ],
      "stateMutability": "view",
      "type": "function"
    },
    {
      "inputs": [],
      "name": "faucetAmount",
      "outputs": [
        {
          "internalType": "uint256",
          "name": "",
          "type": "uint256"
        }
      ],
      "stateMutability": "view",
      "type": "function"
    },
    {
      "inputs": [],
      "name": "faucetCooldown",
      "outputs": [
        {
          "internalType": "uint256",
          "name": "",
          "type": "uint256"
        }
      ],
      "stateMutability": "view",
      "type": "function"
    },
    {
      "inputs": [],
      "name": "getAdminAddress",
      "outputs": [
        {
          "internalType": "address",
          "name": "",
          "type": "address"
        }
      ],
      "stateMutability": "view",
      "type": "function"
    },
    {
      "inputs": [],
      "name": "getContractAddress",
      "outputs": [
        {
          "internalType": "address",
          "name": "",
          "type": "address"
        }
      ],
      "stateMutability": "view",
      "type": "function"
    },
    {
      "inputs": [],
      "name": "getContractTokenBalance",
      "outputs": [
        {
          "internalType": "uint256",
          "name": "",
          "type": "uint256"
        }
      ],
      "stateMutability": "view",
      "type": "function"
    },
    {
      "inputs": [
        {
          "internalType": "bytes32",
          "name": "role",
          "type": "bytes32"
        }
      ],
      "name": "getRoleAdmin",
      "outputs": [
        {
          "internalType": "bytes32",
          "name": "",
          "type": "bytes32"
        }
      ],
      "stateMutability": "view",
      "type": "function"
    },
    {
      "inputs": [
        {
          "internalType": "bytes32",
          "name": "role",
          "type": "bytes32"
        },
        {
          "internalType": "address",
          "name": "account",
          "type": "address"
        }
      ],
      "name": "grantRole",
      "outputs": [],
      "stateMutability": "nonpayable",
      "type": "function"
    },
    {
      "inputs": [
        {
          "internalType": "bytes32",
          "name": "role",
          "type": "bytes32"
        },
        {
          "internalType": "address",
          "name": "account",
          "type": "address"
        }
      ],
      "name": "hasRole",
      "outputs": [
        {
          "internalType": "bool",
          "name": "",
          "type": "bool"
        }
      ],
      "stateMutability": "view",
      "type": "function"
    },
    {
      "inputs": [
        {
          "internalType": "address",
          "name": "user",
          "type": "address"
        }
      ],
      "name": "lastFaucetRequest",
      "outputs": [
        {
          "internalType": "uint256",
          "name": "",
          "type": "uint256"
        }
      ],
      "stateMutability": "view",
      "type": "function"
    },
    {
      "inputs": [
        {
          "internalType": "uint256",
          "name": "amount",
          "type": "uint256"
        }
      ],
      "name": "loadFaucet",
      "outputs": [],
      "stateMutability": "nonpayable",
      "type": "function"
    },
    {
      "inputs": [
        {
          "internalType": "address",
          "name": "to",
          "type": "address"
        },
        {
          "internalType": "uint256",
          "name": "amount",
          "type": "uint256"
        }
      ],
      "name": "mint",
      "outputs": [],
      "stateMutability": "nonpayable",
      "type": "function"
    },
    {
      "inputs": [],
      "name": "name",
      "outputs": [
        {
          "internalType": "string",
          "name": "",
          "type": "string"
        }
      ],
      "stateMutability": "view",
      "type": "function"
    },
    {
      "inputs": [
        {
          "internalType": "address",
          "name": "owner",
          "type": "address"
        }
      ],
      "name": "nonces",
      "outputs": [
        {
          "internalType": "uint256",
          "name": "",
          "type": "uint256"
        }
      ],
      "stateMutability": "view",
      "type": "function"
    },
    {
      "inputs": [
        {
          "internalType": "address",
          "name": "owner",
          "type": "address"
        },
        {
          "internalType": "address",
          "name": "spender",
          "type": "address"
        },
        {
          "internalType": "uint256",
          "name": "value",
          "type": "uint256"
        },
        {
          "internalType": "uint256",
          "name": "deadline",
          "type": "uint256"
        },
        {
          "internalType": "uint8",
          "name": "v",
          "type": "uint8"
        },
        {
          "internalType": "bytes32",
          "name": "r",
          "type": "bytes32"
        },
        {
          "internalType": "bytes32",
          "name": "s",
          "type": "bytes32"
        }
      ],
      "name": "permit",
      "outputs": [],
      "stateMutability": "nonpayable",
      "type": "function"
    },
    {
      "inputs": [
        {
          "internalType": "bytes32",
          "name": "role",
          "type": "bytes32"
        },
        {
          "internalType": "address",
          "name": "callerConfirmation",
          "type": "address"
        }
      ],
      "name": "renounceRole",
      "outputs": [],
      "stateMutability": "nonpayable",
      "type": "function"
    },
    {
      "inputs": [],
      "name": "requestTokens",
      "outputs": [],
      "stateMutability": "nonpayable",
      "type": "function"
    },
    {
      "inputs": [
        {
          "internalType": "bytes32",
          "name": "role",
          "type": "bytes32"
        },
        {
          "internalType": "address",
          "name": "account",
          "type": "address"
        }
      ],
      "name": "revokeRole",
      "outputs": [],
      "stateMutability": "nonpayable",
      "type": "function"
    },
    {
      "inputs": [
        {
          "internalType": "bytes4",
          "name": "interfaceId",
          "type": "bytes4"
        }
      ],
      "name": "supportsInterface",
      "outputs": [
        {
          "internalType": "bool",
          "name": "",
          "type": "bool"
        }
      ],
      "stateMutability": "view",
      "type": "function"
    },
    {
      "inputs": [],
      "name": "symbol",
      "outputs": [
        {
          "internalType": "string",
          "name": "",
          "type": "string"
        }
      ],
      "stateMutability": "view",
      "type": "function"
    },
    {
      "inputs": [],
      "name": "totalSupply",
      "outputs": [
        {
          "internalType": "uint256",
          "name": "",
          "type": "uint256"
        }
      ],
      "stateMutability": "view",
      "type": "function"
    },
    {
      "inputs": [
        {
          "internalType": "address",
          "name": "to",
          "type": "address"
        },
        {
          "internalType": "uint256",
          "name": "value",
          "type": "uint256"
        }
      ],
      "name": "transfer",
      "outputs": [
        {
          "internalType": "bool",
          "name": "",
          "type": "bool"
        }
      ],
      "stateMutability": "nonpayable",
      "type": "function"
    },
    {
      "inputs": [
        {
          "internalType": "address",
          "name": "from",
          "type": "address"
        },
        {
          "internalType": "address",
          "name": "to",
          "type": "address"
        },
        {
          "internalType": "uint256",
          "name": "value",
          "type": "uint256"
        }
      ],
      "name": "transferFrom",
      "outputs": [
        {
          "internalType": "bool",
          "name": "",
          "type": "bool"
        }
      ],
      "stateMutability": "nonpayable",
      "type": "function"
    },
    {
      "inputs": [
        {
          "internalType": "address",
          "name": "transferor",
          "type": "address"
        },
        {
          "internalType": "uint256",
          "name": "amount",
          "type": "uint256"
        }
      ],
      "name": "transferIn",
      "outputs": [
        {
          "internalType": "bool",
          "name": "",
          "type": "bool"
        }
      ],
      "stateMutability": "nonpayable",
      "type": "function"
    },
    {
      "inputs": [
        {
          "internalType": "address",
          "name": "transferee",
          "type": "address"
        },
        {
          "internalType": "uint256",
          "name": "amount",
          "type": "uint256"
        }
      ],
      "name": "transferOut",
      "outputs": [
        {
          "internalType": "bool",
          "name": "",
          "type": "bool"
        }
      ],
      "stateMutability": "nonpayable",
      "type": "function"
    },
    {
      "inputs": [
        {
          "internalType": "uint256",
          "name": "_faucetAmount",
          "type": "uint256"
        },
        {
          "internalType": "uint256",
          "name": "_faucetCooldown",
          "type": "uint256"
        }
      ],
      "name": "updateFaucetSettings",
      "outputs": [],
      "stateMutability": "nonpayable",
      "type": "function"
    }
  ],
  "bytecode": "0x610160604052610708600a553480156200001857600080fd5b506040516200215d3803806200215d8339810160408190526200003b9162000470565b6040518060400160405280600a815260200169263ab1b5bcaa37b5b2b760b11b81525080604051806040016040528060018152602001603160f81b8152506040518060400160405280600a815260200169263ab1b5bcaa37b5b2b760b11b815250604051806040016040528060038152602001624c544b60e81b8152508160039081620000c991906200053a565b506004620000d882826200053a565b50620000ea91508390506005620001cd565b61012052620000fb816006620001cd565b61014052815160208084019190912060e052815190820120610100524660a0526200018960e05161010051604080517f8b73c3c69bb8fe3d512ecc4cf759cc79239f7b179b0ffacaa9a75d522b39400f60208201529081019290925260608201524660808201523060a082015260009060c00160405160208183030381529060405280519060200120905090565b60805250503060c05250600b80546001600160a01b03191633908117909155620001b69060009062000206565b50620001c33083620002b8565b600955506200069d565b6000602083511015620001ed57620001e583620002fa565b905062000200565b81620001fa84826200053a565b5060ff90505b92915050565b60008281526008602090815260408083206001600160a01b038516845290915281205460ff16620002af5760008381526008602090815260408083206001600160a01b03861684529091529020805460ff19166001179055620002663390565b6001600160a01b0316826001600160a01b0316847f2f8788117e7eff1d82e926ec794901d17c78024a50270940304540a733656f0d60405160405180910390a450600162000200565b50600062000200565b6001600160a01b038216620002e85760405163ec442f0560e01b8152600060048201526024015b60405180910390fd5b620002f6600083836200033d565b5050565b600080829050601f8151111562000328578260405163305a27a960e01b8152600401620002df919062000606565b8051620003358262000656565b179392505050565b6001600160a01b0383166200036c5780600260008282546200036091906200067b565b90915550620003e09050565b6001600160a01b03831660009081526020819052604090205481811015620003c15760405163391434e360e21b81526001600160a01b03851660048201526024810182905260448101839052606401620002df565b6001600160a01b03841660009081526020819052604090209082900390555b6001600160a01b038216620003fe576002805482900390556200041d565b6001600160a01b03821660009081526020819052604090208054820190555b816001600160a01b0316836001600160a01b03167fddf252ad1be2c89b69c2b068fc378daa952ba7f163c4a11628f55a4df523b3ef836040516200046391815260200190565b60405180910390a3505050565b600080604083850312156200048457600080fd5b505080516020909101519092909150565b634e487b7160e01b600052604160045260246000fd5b600181811c90821680620004c057607f821691505b602082108103620004e157634e487b7160e01b600052602260045260246000fd5b50919050565b601f8211156200053557600081815260208120601f850160051c81016020861015620005105750805b601f850160051c820191505b8181101562000531578281556001016200051c565b5050505b505050565b81516001600160401b0381111562000556576200055662000495565b6200056e81620005678454620004ab565b84620004e7565b602080601f831160018114620005a657600084156200058d5750858301515b600019600386901b1c1916600185901b17855562000531565b600085815260208120601f198616915b82811015620005d757888601518255948401946001909101908401620005b6565b5085821015620005f65787850151600019600388901b60f8161c191681555b5050505050600190811b01905550565b600060208083528351808285015260005b81811015620006355785810183015185820160400152820162000617565b506000604082860101526040601f19601f8301168501019250505092915050565b80516020808301519190811015620004e15760001960209190910360031b1b16919050565b808201808211156200020057634e487b7160e01b600052601160045260246000fd5b60805160a05160c05160e051610100516101205161014051611a65620006f86000396000610ee601526000610eb901526000610dbe01526000610d9601526000610cf101526000610d1b01526000610d450152611a656000f3fe608060405234801561001057600080fd5b50600436106101f05760003560e01c806376890c581161010f578063a217fddf116100a2578063d547741f11610071578063d547741f14610412578063d5ace7ba14610425578063dd62ed3e1461044e578063e88889151461048757600080fd5b8063a217fddf146103d3578063a9059cbb146103db578063b2e6b912146103ee578063d505accf146103ff57600080fd5b80639195859f116100de5780639195859f1461039c57806391d14854146103af57806395d89b41146103c25780639c281430146103ca57600080fd5b806376890c58146103525780637e36320b146103655780637ecebe001461036e57806384b0196e1461038157600080fd5b8063317d94531161018757806336568abe1161015657806336568abe146102f057806340c10f1914610303578063706e1af01461031657806370a082311461032957600080fd5b8063317d9453146102b157806332a2c5d0146102c6578063359cf2b7146102e05780633644e515146102e857600080fd5b806323b872dd116101c357806323b872dd14610257578063248a9ca31461026a5780632f2ff15d1461028d578063313ce567146102a257600080fd5b806301ffc9a7146101f557806306fdde031461021d578063095ea7b31461023257806318160ddd14610245575b600080fd5b610208610203366004611511565b61049a565b60405190151581526020015b60405180910390f35b6102256104d1565b6040516102149190611592565b6102086102403660046115c1565b610563565b6002545b604051908152602001610214565b6102086102653660046115eb565b61057b565b610249610278366004611627565b60009081526008602052604090206001015490565b6102a061029b366004611640565b61059f565b005b60405160128152602001610214565b30600090815260208190526040902054610249565b305b6040516001600160a01b039091168152602001610214565b6102a06105cf565b6102496106e2565b6102a06102fe366004611640565b6106ec565b6102a06103113660046115c1565b610724565b6102a061032436600461166c565b610739565b61024961033736600461168e565b6001600160a01b031660009081526020819052604090205490565b6102086103603660046115c1565b610764565b610249600a5481565b61024961037c36600461168e565b6107e6565b610389610804565b60405161021497969594939291906116a9565b6102a06103aa366004611627565b61084a565b6102086103bd366004611640565b6108be565b6102256108e9565b61024960095481565b610249600081565b6102086103e93660046115c1565b6108f8565b600b546001600160a01b03166102c8565b6102a061040d36600461173f565b610906565b6102a0610420366004611640565b610a40565b61024961043336600461168e565b6001600160a01b03166000908152600c602052604090205490565b61024961045c3660046117b2565b6001600160a01b03918216600090815260016020908152604080832093909416825291909152205490565b6102086104953660046115c1565b610a65565b60006001600160e01b03198216637965db0b60e01b14806104cb57506301ffc9a760e01b6001600160e01b03198316145b92915050565b6060600380546104e0906117dc565b80601f016020809104026020016040519081016040528092919081815260200182805461050c906117dc565b80156105595780601f1061052e57610100808354040283529160200191610559565b820191906000526020600020905b81548152906001019060200180831161053c57829003601f168201915b5050505050905090565b600033610571818585610acc565b5060019392505050565b600033610589858285610ad9565b610594858585610b51565b506001949350505050565b6000828152600860205260409020600101546105ba81610bb0565b6105c48383610bbd565b50505050565b905090565b600a54336000908152600c60205260409020546105ec919061182c565b600a54336000908152600c602052604090205442929092101591610618916106139161182c565b610c51565b604051602001610628919061183f565b6040516020818303038152906040529061065e5760405162461bcd60e51b81526004016106559190611592565b60405180910390fd5b506009543060009081526020819052604090205410156106c05760405162461bcd60e51b815260206004820152601a60248201527f496e73756666696369656e742066617563657420737570706c790000000000006044820152606401610655565b336000818152600c602052604090204290556009546106e0913091610b51565b565b60006105ca610ce4565b6001600160a01b03811633146107155760405163334bd91960e11b815260040160405180910390fd5b61071f8282610e0f565b505050565b600061072f81610bb0565b61071f8383610e7c565b600061074481610bb0565b6107506012600a611986565b61075a9084611995565b60095550600a5550565b60008061077081610bb0565b306000908152602081905260409020548311156107db5760405162461bcd60e51b8152602060048201526024808201527f496e73756666696369656e742062616c616e636520746f207472616e73666572604482015263081bdd5d60e21b6064820152608401610655565b610571308585610b51565b6001600160a01b0381166000908152600760205260408120546104cb565b600060608060008060006060610818610eb2565b610820610edf565b60408051600080825260208201909252600f60f81b9b939a50919850469750309650945092509050565b600061085581610bb0565b3360009081526020819052604090205482111561087183610c51565b60405160200161088191906119c2565b604051602081830303815290604052906108ae5760405162461bcd60e51b81526004016106559190611592565b506108ba333084610b51565b5050565b60009182526008602090815260408084206001600160a01b0393909316845291905290205460ff1690565b6060600480546104e0906117dc565b600033610571818585610b51565b8342111561092a5760405163313c898160e11b815260048101859052602401610655565b60007f6e71edae12b1b97f4d1f60370fef10105fa2faae0126114a169c64845d6126c98888886109778c6001600160a01b0316600090815260076020526040902080546001810190915590565b6040805160208101969096526001600160a01b0394851690860152929091166060840152608083015260a082015260c0810186905260e00160405160208183030381529060405280519060200120905060006109d282610f0c565b905060006109e282878787610f39565b9050896001600160a01b0316816001600160a01b031614610a29576040516325c0072360e11b81526001600160a01b0380831660048301528b166024820152604401610655565b610a348a8a8a610acc565b50505050505050505050565b600082815260086020526040902060010154610a5b81610bb0565b6105c48383610e0f565b600080610a7181610bb0565b60008311610ac15760405162461bcd60e51b815260206004820181905260248201527f416d6f756e74206d7573742062652067726561746572207468616e207a65726f6044820152606401610655565b610571843085610b51565b61071f8383836001610f67565b6001600160a01b0383811660009081526001602090815260408083209386168352929052205460001981146105c45781811015610b4257604051637dc7a0d960e11b81526001600160a01b03841660048201526024810182905260448101839052606401610655565b6105c484848484036000610f67565b6001600160a01b038316610b7b57604051634b637e8f60e11b815260006004820152602401610655565b6001600160a01b038216610ba55760405163ec442f0560e01b815260006004820152602401610655565b61071f83838361103c565b610bba8133611166565b50565b6000610bc983836108be565b610c495760008381526008602090815260408083206001600160a01b03861684529091529020805460ff19166001179055610c013390565b6001600160a01b0316826001600160a01b0316847f2f8788117e7eff1d82e926ec794901d17c78024a50270940304540a733656f0d60405160405180910390a45060016104cb565b5060006104cb565b60606000610c5e8361119f565b600101905060008167ffffffffffffffff811115610c7e57610c7e6119ac565b6040519080825280601f01601f191660200182016040528015610ca8576020820181803683370190505b5090508181016020015b600019016f181899199a1a9b1b9c1cb0b131b232b360811b600a86061a8153600a8504945084610cb257509392505050565b6000306001600160a01b037f000000000000000000000000000000000000000000000000000000000000000016148015610d3d57507f000000000000000000000000000000000000000000000000000000000000000046145b15610d6757507f000000000000000000000000000000000000000000000000000000000000000090565b6105ca604080517f8b73c3c69bb8fe3d512ecc4cf759cc79239f7b179b0ffacaa9a75d522b39400f60208201527f0000000000000000000000000000000000000000000000000000000000000000918101919091527f000000000000000000000000000000000000000000000000000000000000000060608201524660808201523060a082015260009060c00160405160208183030381529060405280519060200120905090565b6000610e1b83836108be565b15610c495760008381526008602090815260408083206001600160a01b0386168085529252808320805460ff1916905551339286917ff6391f5c32d9c69d2a47ea670b442974b53935d1edc7fd64eb21e047a839171b9190a45060016104cb565b6001600160a01b038216610ea65760405163ec442f0560e01b815260006004820152602401610655565b6108ba6000838361103c565b60606105ca7f00000000000000000000000000000000000000000000000000000000000000006005611277565b60606105ca7f00000000000000000000000000000000000000000000000000000000000000006006611277565b60006104cb610f19610ce4565b8360405161190160f01b8152600281019290925260228201526042902090565b600080600080610f4b88888888611322565b925092509250610f5b82826113f1565b50909695505050505050565b6001600160a01b038416610f915760405163e602df0560e01b815260006004820152602401610655565b6001600160a01b038316610fbb57604051634a1406b160e11b815260006004820152602401610655565b6001600160a01b03808516600090815260016020908152604080832093871683529290522082905580156105c457826001600160a01b0316846001600160a01b03167f8c5be1e5ebec7d5bd14f71427d1e84f3dd0314c0f7b2291e5b200ac8c7c3b9258460405161102e91815260200190565b60405180910390a350505050565b6001600160a01b03831661106757806002600082825461105c919061182c565b909155506110d99050565b6001600160a01b038316600090815260208190526040902054818110156110ba5760405163391434e360e21b81526001600160a01b03851660048201526024810182905260448101839052606401610655565b6001600160a01b03841660009081526020819052604090209082900390555b6001600160a01b0382166110f557600280548290039055611114565b6001600160a01b03821660009081526020819052604090208054820190555b816001600160a01b0316836001600160a01b03167fddf252ad1be2c89b69c2b068fc378daa952ba7f163c4a11628f55a4df523b3ef8360405161115991815260200190565b60405180910390a3505050565b61117082826108be565b6108ba5760405163e2517d3f60e01b81526001600160a01b038216600482015260248101839052604401610655565b60008072184f03e93ff9f4daa797ed6e38ed64bf6a1f0160401b83106111de5772184f03e93ff9f4daa797ed6e38ed64bf6a1f0160401b830492506040015b6d04ee2d6d415b85acef8100000000831061120a576d04ee2d6d415b85acef8100000000830492506020015b662386f26fc10000831061122857662386f26fc10000830492506010015b6305f5e1008310611240576305f5e100830492506008015b612710831061125457612710830492506004015b60648310611266576064830492506002015b600a83106104cb5760010192915050565b606060ff83146112915761128a836114aa565b90506104cb565b81805461129d906117dc565b80601f01602080910402602001604051908101604052809291908181526020018280546112c9906117dc565b80156113165780601f106112eb57610100808354040283529160200191611316565b820191906000526020600020905b8154815290600101906020018083116112f957829003601f168201915b505050505090506104cb565b600080807f7fffffffffffffffffffffffffffffff5d576e7357a4501ddfe92f46681b20a084111561135d57506000915060039050826113e7565b604080516000808252602082018084528a905260ff891692820192909252606081018790526080810186905260019060a0016020604051602081039080840390855afa1580156113b1573d6000803e3d6000fd5b5050604051601f1901519150506001600160a01b0381166113dd575060009250600191508290506113e7565b9250600091508190505b9450945094915050565b600082600381111561140557611405611a19565b0361140e575050565b600182600381111561142257611422611a19565b036114405760405163f645eedf60e01b815260040160405180910390fd5b600282600381111561145457611454611a19565b036114755760405163fce698f760e01b815260048101829052602401610655565b600382600381111561148957611489611a19565b036108ba576040516335e2f38360e21b815260048101829052602401610655565b606060006114b7836114e9565b604080516020808252818301909252919250600091906020820181803683375050509182525060208101929092525090565b600060ff8216601f8111156104cb57604051632cd44ac360e21b815260040160405180910390fd5b60006020828403121561152357600080fd5b81356001600160e01b03198116811461153b57600080fd5b9392505050565b60005b8381101561155d578181015183820152602001611545565b50506000910152565b6000815180845261157e816020860160208601611542565b601f01601f19169290920160200192915050565b60208152600061153b6020830184611566565b80356001600160a01b03811681146115bc57600080fd5b919050565b600080604083850312156115d457600080fd5b6115dd836115a5565b946020939093013593505050565b60008060006060848603121561160057600080fd5b611609846115a5565b9250611617602085016115a5565b9150604084013590509250925092565b60006020828403121561163957600080fd5b5035919050565b6000806040838503121561165357600080fd5b82359150611663602084016115a5565b90509250929050565b6000806040838503121561167f57600080fd5b50508035926020909101359150565b6000602082840312156116a057600080fd5b61153b826115a5565b60ff60f81b881681526000602060e0818401526116c960e084018a611566565b83810360408501526116db818a611566565b606085018990526001600160a01b038816608086015260a0850187905284810360c0860152855180825283870192509083019060005b8181101561172d57835183529284019291840191600101611711565b50909c9b505050505050505050505050565b600080600080600080600060e0888a03121561175a57600080fd5b611763886115a5565b9650611771602089016115a5565b95506040880135945060608801359350608088013560ff8116811461179557600080fd5b9699959850939692959460a0840135945060c09093013592915050565b600080604083850312156117c557600080fd5b6117ce836115a5565b9150611663602084016115a5565b600181811c908216806117f057607f821691505b60208210810361181057634e487b7160e01b600052602260045260246000fd5b50919050565b634e487b7160e01b600052601160045260246000fd5b808201808211156104cb576104cb611816565b7f46617563657420636f6f6c646f776e207374696c6c206163746976652e20506c815274032b0b9b2903a393c9030b3b0b4b71030b33a32b91605d1b602082015260008251611895816035850160208701611542565b9190910160350192915050565b600181815b808511156118dd5781600019048211156118c3576118c3611816565b808516156118d057918102915b93841c93908002906118a7565b509250929050565b6000826118f4575060016104cb565b81611901575060006104cb565b816001811461191757600281146119215761193d565b60019150506104cb565b60ff84111561193257611932611816565b50506001821b6104cb565b5060208310610133831016604e8410600b8410161715611960575081810a6104cb565b61196a83836118a2565b806000190482111561197e5761197e611816565b029392505050565b600061153b60ff8416836118e5565b80820281158282048414176104cb576104cb611816565b634e487b7160e01b600052604160045260246000fd5b7f496e73756666696369656e742062616c616e636520746f206c6f616420666175815268031b2ba103bb4ba34160bd1b602082015260008251611a0c816029850160208701611542565b9190910160290192915050565b634e487b7160e01b600052602160045260246000fdfea264697066735822122015bb302c39e11686892a6ab2fba860219062a92765f700410230c1b04d5cc07364736f6c63430008140033",
  "linkReferences": {},
  "deployedLinkReferences": {}
}