{
  "_format": "hh-sol-artifact-1",
  "contractName": "TokenHandler",
  "sourceName": "contracts/TokenHandler.sol",
  "abi": [
    {
      "inputs": [
        {
          "internalType": "address",
          "name": "_tokenAddress",
          "type": "address"
        }
      ],
      "stateMutability": "nonpayable",
      "type": "constructor"
    },
    {
      "inputs": [
        {
          "internalType": "uint256",
          "name": "_numTokens",
          "type": "uint256"
        }
      ],
      "name": "depositStashToGameKitty",
      "outputs": [],
      "stateMutability": "nonpayable",
      "type": "function"
    },
    {
      "inputs": [
        {
          "internalType": "uint256",
          "name": "_numTokens",
          "type": "uint256"
        }
      ],
      "name": "depositWalletToStash",
      "outputs": [],
      "stateMutability": "nonpayable",
      "type": "function"
    },
    {
      "inputs": [],
      "name": "getGameBalance",
      "outputs": [
        {
          "internalType": "uint256",
          "name": "",
          "type": "uint256"
        }
      ],
      "stateMutability": "view",
      "type": "function"
    },
    {
      "inputs": [],
      "name": "getGameKittyBalance",
      "outputs": [
        {
          "internalType": "uint256",
          "name": "",
          "type": "uint256"
        }
      ],
      "stateMutability": "view",
      "type": "function"
    },
    {
      "inputs": [
        {
          "internalType": "address",
          "name": "_userAddress",
          "type": "address"
        }
      ],
      "name": "getStashBalance",
      "outputs": [
        {
          "internalType": "uint256",
          "name": "",
          "type": "uint256"
        }
      ],
      "stateMutability": "view",
      "type": "function"
    },
    {
      "inputs": [],
      "name": "masterAccountAddress",
      "outputs": [
        {
          "internalType": "address",
          "name": "",
          "type": "address"
        }
      ],
      "stateMutability": "view",
      "type": "function"
    },
    {
      "inputs": [],
      "name": "ownerAddress",
      "outputs": [
        {
          "internalType": "address",
          "name": "",
          "type": "address"
        }
      ],
      "stateMutability": "view",
      "type": "function"
    },
    {
      "inputs": [
        {
          "internalType": "address",
          "name": "recipient",
          "type": "address"
        },
        {
          "internalType": "uint256",
          "name": "_numTokens",
          "type": "uint256"
        }
      ],
      "name": "sendTokens",
      "outputs": [],
      "stateMutability": "nonpayable",
      "type": "function"
    },
    {
      "inputs": [
        {
          "internalType": "address",
          "name": "",
          "type": "address"
        }
      ],
      "name": "stashBalances",
      "outputs": [
        {
          "internalType": "uint256",
          "name": "",
          "type": "uint256"
        }
      ],
      "stateMutability": "view",
      "type": "function"
    },
    {
      "inputs": [],
      "name": "token",
      "outputs": [
        {
          "internalType": "contract LuckyToken",
          "name": "",
          "type": "address"
        }
      ],
      "stateMutability": "view",
      "type": "function"
    },
    {
      "inputs": [
        {
          "internalType": "uint256",
          "name": "_numTokens",
          "type": "uint256"
        }
      ],
      "name": "transferFromMasterAccount",
      "outputs": [],
      "stateMutability": "nonpayable",
      "type": "function"
    },
    {
      "inputs": [
        {
          "internalType": "uint256",
          "name": "_numTokens",
          "type": "uint256"
        }
      ],
      "name": "transferToMasterAccount",
      "outputs": [],
      "stateMutability": "nonpayable",
      "type": "function"
    },
    {
      "inputs": [
        {
          "internalType": "uint256",
          "name": "_numTokens",
          "type": "uint256"
        }
      ],
      "name": "withdrawGameKittyToStash",
      "outputs": [],
      "stateMutability": "nonpayable",
      "type": "function"
    },
    {
      "inputs": [
        {
          "internalType": "uint256",
          "name": "_numTokens",
          "type": "uint256"
        }
      ],
      "name": "withdrawStashToWallet",
      "outputs": [],
      "stateMutability": "nonpayable",
      "type": "function"
    }
  ],
  "bytecode": "0x608060405234801561001057600080fd5b50604051610efb380380610efb83398101604081905261002f9161006f565b600180546001600160a01b03199081163317909155600080546001600160a01b03939093169282168317815560028054909216909217905560045561009f565b60006020828403121561008157600080fd5b81516001600160a01b038116811461009857600080fd5b9392505050565b610e4d806100ae6000396000f3fe608060405234801561001057600080fd5b50600436106100ea5760003560e01c8063425259c81161008c5780638f84aa09116100665780638f84aa09146101e7578063b64665da146101fa578063c574d15614610202578063fc0c546a1461020a57600080fd5b8063425259c81461019657806351b1b4c7146101a9578063697ad4c8146101bc57600080fd5b806319be7459116100c857806319be74591461012a5780631a6944b21461013d5780633f7c6b8f1461015057806340109f921461018357600080fd5b8063010a139d146100ef57806305ab421d14610104578063122edae314610117575b600080fd5b6101026100fd366004610b74565b61021d565b005b610102610112366004610ba9565b6102fb565b610102610125366004610b74565b61042e565b610102610138366004610b74565b610504565b61010261014b366004610b74565b6105ba565b61017061015e366004610bd3565b60036020526000908152604090205481565b6040519081526020015b60405180910390f35b610170610191366004610bd3565b61069b565b6101026101a4366004610b74565b610742565b6101026101b7366004610b74565b6107e4565b6002546101cf906001600160a01b031681565b6040516001600160a01b03909116815260200161017a565b6001546101cf906001600160a01b031681565b600454610170565b610170610996565b6000546101cf906001600160a01b031681565b60005460405163e888891560e01b8152306004820152602481018390526001600160a01b039091169063e8888915906044016020604051808303816000875af115801561026e573d6000803e3d6000fd5b505050506040513d601f19601f820116820180604052508101906102929190610bf5565b6102f85760405162461bcd60e51b815260206004820152602c60248201527f5472616e736665722066726f6d206b6974747920746f206d617374657220616360448201526b18dbdd5b9d0819985a5b195960a21b60648201526084015b60405180910390fd5b50565b336000908152600360205260409020548111156103515760405162461bcd60e51b8152602060048201526014602482015273496e73756666696369656e742062616c616e636560601b60448201526064016102ef565b60005460405163a9059cbb60e01b81526001600160a01b038481166004830152602482018490529091169063a9059cbb906044016020604051808303816000875af11580156103a4573d6000803e3d6000fd5b505050506040513d601f19601f820116820180604052508101906103c89190610bf5565b6104065760405162461bcd60e51b815260206004820152600f60248201526e151c985b9cd9995c8819985a5b1959608a1b60448201526064016102ef565b3360009081526003602052604081208054839290610425908490610c2d565b90915550505050565b600054604051630ed1218b60e31b8152306004820152602481018390526001600160a01b03909116906376890c58906044016020604051808303816000875af115801561047f573d6000803e3d6000fd5b505050506040513d601f19601f820116820180604052508101906104a39190610bf5565b6102f85760405162461bcd60e51b815260206004820152602c60248201527f5472616e736665722066726f6d206d6173746572206163636f756e7420746f2060448201526b1ada5d1d1e4819985a5b195960a21b60648201526084016102ef565b80600454101561057c5760405162461bcd60e51b815260206004820152603860248201527f496e73756666696369656e742062616c616e636520696e2067616d65206b697460448201527f747920746f2073656e6420746f2075736572207374617368000000000000000060648201526084016102ef565b806004600082825461058e9190610c2d565b909155505033600090815260036020526040812080548392906105b2908490610c40565b909155505050565b6000546040516323b872dd60e01b8152336004820152306024820152604481018390526001600160a01b03909116906323b872dd906064016020604051808303816000875af1158015610611573d6000803e3d6000fd5b505050506040513d601f19601f820116820180604052508101906106359190610bf5565b61063e82610a08565b60405160200161064e9190610c77565b6040516020818303038152906040529061067b5760405162461bcd60e51b81526004016102ef9190610cd8565b5033600090815260036020526040812080548392906105b2908490610c40565b6000336001600160a01b03831614806106be57506001546001600160a01b031633145b6107265760405162461bcd60e51b815260206004820152603360248201527f4f6e6c7920746865206f776e6572206f722074686520486f7573652063616e20604482015272636865636b2073746173682062616c616e636560681b60648201526084016102ef565b506001600160a01b031660009081526003602052604090205490565b336000908152600360205260409020548111156107ac5760405162461bcd60e51b815260206004820152602260248201527f496e73756666696369656e742062616c616e636520696e2075736572207374616044820152610e6d60f31b60648201526084016102ef565b33600090815260036020526040812080548392906107cb908490610c2d565b9250508190555080600460008282546105b29190610c40565b6001546001600160a01b0316331461084d5760405162461bcd60e51b815260206004820152602660248201527f4e6f7420746865206f776e65722e204f6e6c79206f776e6572206d617920646f604482015265103a3434b99760d11b60648201526084016102ef565b33600090815260036020526040902054818110159061086b90610a08565b61087483610a08565b604051602001610885929190610d0b565b604051602081830303815290604052906108b25760405162461bcd60e51b81526004016102ef9190610cd8565b5033600090815260036020526040812080548392906108d2908490610c2d565b909155505060005460405163a9059cbb60e01b8152336004820152602481018390526001600160a01b039091169063a9059cbb906044016020604051808303816000875af1158015610928573d6000803e3d6000fd5b505050506040513d601f19601f8201168201806040525081019061094c9190610bf5565b61095582610a08565b6040516020016109659190610d8c565b604051602081830303815290604052906109925760405162461bcd60e51b81526004016102ef9190610cd8565b5050565b600080546040516370a0823160e01b81523060048201526001600160a01b03909116906370a0823190602401602060405180830381865afa1580156109df573d6000803e3d6000fd5b505050506040513d601f19601f82011682018060405250810190610a039190610de8565b905090565b60606000610a1583610a9b565b600101905060008167ffffffffffffffff811115610a3557610a35610e01565b6040519080825280601f01601f191660200182016040528015610a5f576020820181803683370190505b5090508181016020015b600019016f181899199a1a9b1b9c1cb0b131b232b360811b600a86061a8153600a8504945084610a6957509392505050565b60008072184f03e93ff9f4daa797ed6e38ed64bf6a1f0160401b8310610ada5772184f03e93ff9f4daa797ed6e38ed64bf6a1f0160401b830492506040015b6d04ee2d6d415b85acef81000000008310610b06576d04ee2d6d415b85acef8100000000830492506020015b662386f26fc100008310610b2457662386f26fc10000830492506010015b6305f5e1008310610b3c576305f5e100830492506008015b6127108310610b5057612710830492506004015b60648310610b62576064830492506002015b600a8310610b6e576001015b92915050565b600060208284031215610b8657600080fd5b5035919050565b80356001600160a01b0381168114610ba457600080fd5b919050565b60008060408385031215610bbc57600080fd5b610bc583610b8d565b946020939093013593505050565b600060208284031215610be557600080fd5b610bee82610b8d565b9392505050565b600060208284031215610c0757600080fd5b81518015158114610bee57600080fd5b634e487b7160e01b600052601160045260246000fd5b81810381811115610b6e57610b6e610c17565b80820180821115610b6e57610b6e610c17565b60005b83811015610c6e578181015183820152602001610c56565b50506000910152565b7102330b4b632b2103a37903232b837b9b4ba160751b815260008251610ca4816012850160208701610c53565b7f746f6b656e732066726f6d2077616c6c657420746f20737461736800000000006012939091019283015250602d01919050565b6020815260008251806020840152610cf7816040850160208701610c53565b601f01601f19169190910160400192915050565b7f496e73756666696369656e7420746f6b656e2062616c616e6365200000000000815260008351610d4381601b850160208801610c53565b7f696e207573657220737461736820746f20776974686472617700000000000000601b918401918201528351610d80816034840160208801610c53565b01603401949350505050565b7f5769746864726177616c20746f2077616c6c6574206f66200000000000000000815260008251610dc4816018850160208701610c53565b6c1d1bdad95b9cc819985a5b1959609a1b6018939091019283015250602501919050565b600060208284031215610dfa57600080fd5b5051919050565b634e487b7160e01b600052604160045260246000fdfea26469706673582212204eb72367d13cad5e69e557b78acc6985eeb6c9211c26c722256c56cdf5b4fa2364736f6c63430008140033",
  "linkReferences": {},
  "deployedLinkReferences": {}
}