{
  "_format": "hh-sol-artifact-1",
  "contractName": "Wheel",
  "sourceName": "contracts/Wheel.sol",
  "abi": [
    {
      "inputs": [
        {
          "internalType": "address",
          "name": "_tokenHandlerAddress",
          "type": "address"
        }
      ],
      "stateMutability": "nonpayable",
      "type": "constructor"
    },
    {
      "inputs": [
        {
          "internalType": "address",
          "name": "owner",
          "type": "address"
        }
      ],
      "name": "OwnableInvalidOwner",
      "type": "error"
    },
    {
      "inputs": [
        {
          "internalType": "address",
          "name": "account",
          "type": "address"
        }
      ],
      "name": "OwnableUnauthorizedAccount",
      "type": "error"
    },
    {
      "anonymous": false,
      "inputs": [
        {
          "indexed": true,
          "internalType": "address",
          "name": "previousOwner",
          "type": "address"
        },
        {
          "indexed": true,
          "internalType": "address",
          "name": "newOwner",
          "type": "address"
        }
      ],
      "name": "OwnershipTransferred",
      "type": "event"
    },
    {
      "inputs": [
        {
          "internalType": "uint256",
          "name": "_numTokensBet",
          "type": "uint256"
        },
        {
          "internalType": "string",
          "name": "_colorBet",
          "type": "string"
        }
      ],
      "name": "bet",
      "outputs": [],
      "stateMutability": "nonpayable",
      "type": "function"
    },
    {
      "inputs": [
        {
          "internalType": "string",
          "name": "_chosenBet",
          "type": "string"
        }
      ],
      "name": "chooseOutcome",
      "outputs": [
        {
          "internalType": "string",
          "name": "",
          "type": "string"
        }
      ],
      "stateMutability": "view",
      "type": "function"
    },
    {
      "inputs": [],
      "name": "closeGame",
      "outputs": [],
      "stateMutability": "nonpayable",
      "type": "function"
    },
    {
      "inputs": [
        {
          "internalType": "string",
          "name": "_element",
          "type": "string"
        },
        {
          "internalType": "string[]",
          "name": "_array",
          "type": "string[]"
        }
      ],
      "name": "existsElement",
      "outputs": [
        {
          "internalType": "bool",
          "name": "",
          "type": "bool"
        }
      ],
      "stateMutability": "pure",
      "type": "function"
    },
    {
      "inputs": [],
      "name": "houseSkewPercentage",
      "outputs": [
        {
          "internalType": "uint256",
          "name": "",
          "type": "uint256"
        }
      ],
      "stateMutability": "view",
      "type": "function"
    },
    {
      "inputs": [],
      "name": "isGameOpen",
      "outputs": [
        {
          "internalType": "bool",
          "name": "",
          "type": "bool"
        }
      ],
      "stateMutability": "view",
      "type": "function"
    },
    {
      "inputs": [],
      "name": "maxBet",
      "outputs": [
        {
          "internalType": "uint256",
          "name": "",
          "type": "uint256"
        }
      ],
      "stateMutability": "view",
      "type": "function"
    },
    {
      "inputs": [],
      "name": "minBet",
      "outputs": [
        {
          "internalType": "uint256",
          "name": "",
          "type": "uint256"
        }
      ],
      "stateMutability": "view",
      "type": "function"
    },
    {
      "inputs": [],
      "name": "openGame",
      "outputs": [],
      "stateMutability": "nonpayable",
      "type": "function"
    },
    {
      "inputs": [],
      "name": "owner",
      "outputs": [
        {
          "internalType": "address",
          "name": "",
          "type": "address"
        }
      ],
      "stateMutability": "view",
      "type": "function"
    },
    {
      "inputs": [],
      "name": "renounceOwnership",
      "outputs": [],
      "stateMutability": "nonpayable",
      "type": "function"
    },
    {
      "inputs": [],
      "name": "tokenHandler",
      "outputs": [
        {
          "internalType": "contract TokenHandler",
          "name": "",
          "type": "address"
        }
      ],
      "stateMutability": "view",
      "type": "function"
    },
    {
      "inputs": [
        {
          "internalType": "address",
          "name": "newOwner",
          "type": "address"
        }
      ],
      "name": "transferOwnership",
      "outputs": [],
      "stateMutability": "nonpayable",
      "type": "function"
    }
  ],
  "bytecode": "0x60018080556127106002908155600391825560c0918252621c995960ea1b60e0526080918252610140604052600561010081815264776869746560d81b6101205260a0526200005092909162000137565b503480156200005e57600080fd5b506040516200159a3803806200159a83398101604081905262000081916200020e565b3380620000a857604051631e4fbdf760e01b81526000600482015260240160405180910390fd5b620000b381620000e7565b50600480546001600160a01b0319166001600160a01b03929092169190911790556006805460ff19166001179055620003b1565b600080546001600160a01b038381166001600160a01b0319831681178455604051919092169283917f8be0079c531659141344cd1fd0a4f28419497f9722a3daafe3b4186f6b6457e09190a35050565b82805482825590600052602060002090810192821562000182579160200282015b82811115620001825782518290620001719082620002e5565b509160200191906001019062000158565b506200019092915062000194565b5090565b8082111562000190576000620001ab8282620001b5565b5060010162000194565b508054620001c39062000256565b6000825580601f10620001d4575050565b601f016020900490600052602060002090810190620001f49190620001f7565b50565b5b80821115620001905760008155600101620001f8565b6000602082840312156200022157600080fd5b81516001600160a01b03811681146200023957600080fd5b9392505050565b634e487b7160e01b600052604160045260246000fd5b600181811c908216806200026b57607f821691505b6020821081036200028c57634e487b7160e01b600052602260045260246000fd5b50919050565b601f821115620002e057600081815260208120601f850160051c81016020861015620002bb5750805b601f850160051c820191505b81811015620002dc57828155600101620002c7565b5050505b505050565b81516001600160401b0381111562000301576200030162000240565b620003198162000312845462000256565b8462000292565b602080601f831160018114620003515760008415620003385750858301515b600019600386901b1c1916600185901b178555620002dc565b600085815260208120601f198616915b82811015620003825788860151825594840194600190910190840162000361565b5085821015620003a15787850151600019600388901b60f8161c191681555b5050505050600190811b01905550565b6111d980620003c16000396000f3fe608060405234801561001057600080fd5b50600436106100cf5760003560e01c80638da5cb5b1161008c578063b7194d7c11610066578063b7194d7c14610186578063f2fde38b14610191578063f413f36a146101a4578063fa12d782146101c457600080fd5b80638da5cb5b14610159578063915eb32f1461016a5780639619367d1461017d57600080fd5b80631b3d6e87146100d45780632e5b2168146101045780634354cdb11461011b578063715018a614610124578063786b844b1461012e578063792c617514610136575b600080fd5b6004546100e7906001600160a01b031681565b6040516001600160a01b0390911681526020015b60405180910390f35b61010d60025481565b6040519081526020016100fb565b61010d60035481565b61012c6101cc565b005b61012c6101e0565b610149610144366004610c2f565b6101f4565b60405190151581526020016100fb565b6000546001600160a01b03166100e7565b61012c610178366004610d16565b610295565b61010d60015481565b60065460ff16610149565b61012c61019f366004610d5d565b61071f565b6101b76101b2366004610d8d565b61075d565b6040516100fb9190610dee565b61012c610979565b6101d4610990565b6101de60006109bd565b565b6101e8610990565b6006805460ff19169055565b6000805b82518110156102895782818151811061021357610213610e21565b602002602001015160405160200161022b9190610e37565b60405160208183030381529060405280519060200120846040516020016102529190610e37565b604051602081830303815290604052805190602001200361027757600191505061028f565b8061028181610e69565b9150506101f8565b50600090505b92915050565b60065460ff166102dd5760405162461bcd60e51b815260206004820152600e60248201526d11d85b59481a5cc818db1bdcd95960921b60448201526064015b60405180910390fd5b60015482101580156102f157506002548211155b6102fc600154610a0d565b610307600254610a0d565b604051602001610318929190610e82565b604051602081830303815290604052906103455760405162461bcd60e51b81526004016102d49190610dee565b50610421816005805480602002602001604051908101604052809291908181526020016000905b8282101561041857838290600052602060002001805461038b90610f1f565b80601f01602080910402602001604051908101604052809291908181526020018280546103b790610f1f565b80156104045780601f106103d957610100808354040283529160200191610404565b820191906000526020600020905b8154815290600101906020018083116103e757829003601f168201915b50505050508152602001906001019061036c565b505050506101f4565b6104615760405162461bcd60e51b8152602060048201526011602482015270125b9d985b1a590818dbdb1bdc8818995d607a1b60448201526064016102d4565b600480546040516320084fc960e11b815233928101929092526000916001600160a01b03909116906340109f9290602401602060405180830381865afa1580156104af573d6000803e3d6000fd5b505050506040513d601f19601f820116820180604052508101906104d39190610f59565b9050828110156104e282610a0d565b6104eb85610a0d565b6040516020016104fc929190610f72565b604051602081830303815290604052906105295760405162461bcd60e51b81526004016102d49190610dee565b506000600460009054906101000a90046001600160a01b03166001600160a01b031663b64665da6040518163ffffffff1660e01b8152600401602060405180830381865afa15801561057f573d6000803e3d6000fd5b505050506040513d601f19601f820116820180604052508101906105a39190610f59565b9050838110156105b282610a0d565b6105bb86610a0d565b6040516020016105cc929190611026565b604051602081830303815290604052906105f95760405162461bcd60e51b81526004016102d49190610dee565b5060006106058461075d565b9050806040516020016106189190610e37565b604051602081830303815290604052805190602001208460405160200161063f9190610e37565b60405160208183030381529060405280519060200120036106bb57600480546040516319be745960e01b81529182018790526001600160a01b0316906319be745990602401600060405180830381600087803b15801561069e57600080fd5b505af11580156106b2573d6000803e3d6000fd5b50505050610718565b6004805460405163084a4b3960e31b81529182018790526001600160a01b03169063425259c890602401600060405180830381600087803b1580156106ff57600080fd5b505af1158015610713573d6000803e3d6000fd5b505050505b5050505050565b610727610990565b6001600160a01b03811661075157604051631e4fbdf760e01b8152600060048201526024016102d4565b61075a816109bd565b50565b6005546060906000906107719060646110b6565b905060006003548261078391906110ca565b600554909150600090610798906001906110ca565b6003546107a591906110b6565b6107af90846110ca565b90506000606442446040516020016107d1929190918252602082015260400190565b6040516020818303038152906040528051906020012060001c6107f491906110dd565b90506000805b60055481101561095e576005818154811061081757610817610e21565b9060005260206000200160405160200161083191906110f1565b60405160208183030381529060405280519060200120886040516020016108589190610e37565b60405160208183030381529060405280519060200120036108845761087d8583611190565b9150610891565b61088e8483611190565b91505b8183101561094c57600581815481106108ac576108ac610e21565b9060005260206000200180546108c190610f1f565b80601f01602080910402602001604051908101604052809291908181526020018280546108ed90610f1f565b801561093a5780601f1061090f5761010080835404028352916020019161093a565b820191906000526020600020905b81548152906001019060200180831161091d57829003601f168201915b50505050509650505050505050919050565b8061095681610e69565b9150506107fa565b50506040805160208101909152600081529695505050505050565b610981610990565b6006805460ff19166001179055565b6000546001600160a01b031633146101de5760405163118cdaa760e01b81523360048201526024016102d4565b600080546001600160a01b038381166001600160a01b0319831681178455604051919092169283917f8be0079c531659141344cd1fd0a4f28419497f9722a3daafe3b4186f6b6457e09190a35050565b60606000610a1a83610aa0565b600101905060008167ffffffffffffffff811115610a3a57610a3a610b78565b6040519080825280601f01601f191660200182016040528015610a64576020820181803683370190505b5090508181016020015b600019016f181899199a1a9b1b9c1cb0b131b232b360811b600a86061a8153600a8504945084610a6e57509392505050565b60008072184f03e93ff9f4daa797ed6e38ed64bf6a1f0160401b8310610adf5772184f03e93ff9f4daa797ed6e38ed64bf6a1f0160401b830492506040015b6d04ee2d6d415b85acef81000000008310610b0b576d04ee2d6d415b85acef8100000000830492506020015b662386f26fc100008310610b2957662386f26fc10000830492506010015b6305f5e1008310610b41576305f5e100830492506008015b6127108310610b5557612710830492506004015b60648310610b67576064830492506002015b600a831061028f5760010192915050565b634e487b7160e01b600052604160045260246000fd5b604051601f8201601f1916810167ffffffffffffffff81118282101715610bb757610bb7610b78565b604052919050565b600082601f830112610bd057600080fd5b813567ffffffffffffffff811115610bea57610bea610b78565b610bfd601f8201601f1916602001610b8e565b818152846020838601011115610c1257600080fd5b816020850160208301376000918101602001919091529392505050565b60008060408385031215610c4257600080fd5b823567ffffffffffffffff80821115610c5a57600080fd5b610c6686838701610bbf565b9350602091508185013581811115610c7d57600080fd5b8501601f81018713610c8e57600080fd5b803582811115610ca057610ca0610b78565b8060051b610caf858201610b8e565b918252828101850191858101908a841115610cc957600080fd5b86850192505b83831015610d0557823586811115610ce75760008081fd5b610cf58c8983890101610bbf565b8352509186019190860190610ccf565b809750505050505050509250929050565b60008060408385031215610d2957600080fd5b82359150602083013567ffffffffffffffff811115610d4757600080fd5b610d5385828601610bbf565b9150509250929050565b600060208284031215610d6f57600080fd5b81356001600160a01b0381168114610d8657600080fd5b9392505050565b600060208284031215610d9f57600080fd5b813567ffffffffffffffff811115610db657600080fd5b610dc284828501610bbf565b949350505050565b60005b83811015610de5578181015183820152602001610dcd565b50506000910152565b6020815260008251806020840152610e0d816040850160208701610dca565b601f01601f19169190910160400192915050565b634e487b7160e01b600052603260045260246000fd5b60008251610e49818460208701610dca565b9190910192915050565b634e487b7160e01b600052601160045260246000fd5b600060018201610e7b57610e7b610e53565b5060010190565b7f496e76616c6964206e756d626572206f6620746f6b656e73206265742e20596f8152721d481b5d5cdd0818995d08185d081b19585cdd606a1b602082015260008351610ed6816033850160208801610dca565b7f746f6b656e7320616e64206e6f206d6f7265207468616e2000000000000000006033918401918201528351610f1381604b840160208801610dca565b01604b01949350505050565b600181811c90821680610f3357607f821691505b602082108103610f5357634e487b7160e01b600052602260045260246000fd5b50919050565b600060208284031215610f6b57600080fd5b5051919050565b7502ab9b2b91039ba30b9b4103130b630b731b29037b3160551b815260008351610fa3816016850160208801610dca565b7f697320696e73756666696369656e7420746f20636f76657220626574206f66206016918401918201528351610fe0816036840160208801610dca565b7f2e20506c6561736520616464206d6f726520746f6b656e7320746f20796f757260369290910191820152661039ba30b9b41760c91b6056820152605d01949350505050565b75023b0b6b29035b4ba3a3c903130b630b731b29037b3160551b815260008351611057816016850160208801610dca565b7f697320696e73756666696369656e7420746f20636f76657220626574206f66206016918401918201528351611094816036840160208801610dca565b01603601949350505050565b634e487b7160e01b600052601260045260246000fd5b6000826110c5576110c56110a0565b500490565b8181038181111561028f5761028f610e53565b6000826110ec576110ec6110a0565b500690565b600080835481600182811c91508083168061110d57607f831692505b6020808410820361112c57634e487b7160e01b86526022600452602486fd5b818015611140576001811461115557611182565b60ff1986168952841515850289019650611182565b60008a81526020902060005b8681101561117a5781548b820152908501908301611161565b505084890196505b509498975050505050505050565b8082018082111561028f5761028f610e5356fea264697066735822122056692759371071bab986d28748e80e8aa06557321121a4c2cb6ce59e6d2d9a5d64736f6c63430008140033",
  "linkReferences": {},
  "deployedLinkReferences": {}
}